:020000041000EA
:1004000000940008830400100D000000B5B3001034
:1004100000000000000000000000000000000000DC
:10042000000000000000000000000000A5B3001064
:10043000000000000000000069B30010010500107A
:1004400001050010F58600100105001001050010DF
:10045000010500100105001001050010D1850010F4
:100460000105001001050010010500100105001034
:100470000105001001050010010500100105001024
:100480007047FFF7FDFF72B6164C174DAC4209DA04
:1004900021686268A368043B02DBC858D050FAE7C1
:1004A0000C34F3E7114B124CA34208DA19685A686E
:1004B0000020043A01DB8850FBE70833F4E70D48DD
:1004C0000D490860BFF34F8F08F030F9EFF3148047
:1004D0000221084380F31488084880F309880AF051
:1004E0004DF9FEE7200500105C0500105C050010CA
:1004F00074050010008F010808ED00E0009C000862
:10050000FEE7FEE700B504207146084202D0EFF393
:10051000098001E0EFF30880043027F0A3FFFEE735
:1005200000040010008F010880000000C0070310C5
:10053000808F0108BC03000080070310009C0008A6
:1005400040000000800703100018000800000000B1
:0C0550007C0B031000F80208C00400003F
:10055C003C930108686E0000409C0008E0F100002C
:08056C0000180008202800001F
:100574000000000000000000000000000000000077
:100584000000000000000000000000000000000067
:1005A00010B5034B0A000100186800F04DF810BDAB
:1005B00064910108014B18687047C04664910108B6
:1005C000084B10B50400002B02D0002100E000BF52
:1005D000054B1868836A002B00D0984720002CF048
:1005E000E7F8C04600000000600B0010EC30006827
:1005F00070470000044B1B681B6A002B00D1034BA3
:10060000EC3318687047C04664910108C89101082E
:1006100010B5034B0100186800F024F810BDC04667
:100620006491010882B0002900D101A9101E06D0F2
:10063000002B06D013780B601078431E984102B04F
:10064000704702204042FAE74A4370B51100140097
:1006500000F052F8051E03D02200002100F036FD04
:10066000280070BD70B50500002910D00C1F23684C
:10067000002B00DAE418280000F070FA1D4A136815
:10068000002B05D163601460280000F068FA70BD8B
:10069000A34209D9216860188342F3D118685B68C6
:1006A00041182160EEE713005A68002A01D0A242E7
:1006B000F9D919685818A0420BD1206809185818A0
:1006C00019608242E0D110685268411819605A607E
:1006D000DAE7A04202D90C232B60D5E72168601825
:1006E000824203D1106852684118216062605C60E8
:1006F000CAE7C04658FB0108032370B5CD1C9D43D3
:10070000083506000C2D1ED20C25A9421DD830003C
:1007100000F024FA254A14682100002919D1244C3C
:100720002368002B03D1300000F044F8206029003A
:10073000300000F03FF8431C2BD10C233000336015
:1007400000F00DFA03E0002DDFDA0C233360002007
:1007500070BD0B685B1B19D40B2B03D90B60CC1835
:10076000256003E04B688C420DD11360300000F02F
:10077000F6F9200007220B30231D9043C31AE7D05F
:100780005A42E250E4E763600C00EFE70C0049686E
:10079000C3E70323C41C9C43A042E1D0211A3000CC
:1007A00000F008F8431CDBD1C7E7C04658FB01083E
:1007B0005CFB0108002370B5064C050008002360AF
:1007C0002BF0E8FF431C03D12368002B00D02B60E3
:1007D00070BDC046A0010208C9B20378002B04D046
:1007E0008B4200D170470130F7E74B4259414942F3
:1007F0000840F7E702780B78002A03D00130013176
:100800009A42F7D0D01A70470023C25C0133002A05
:10081000FBD1581E7047002330B59A420AD0013AE6
:10082000C45CCD5CAC4204D1934202D00133002CB5
:10083000F6D1631B180030BD30B50500002A00D189
:1008400030BD0C78013A6B1C2C700131002C05D1A5
:100850009A189A42F4D01C700133FAE71D00EDE7B4
:1008600010B50378002B0FD10B785A4253415B42ED
:10087000184010BD0023CA5C002AFAD0C45C944220
:1008800001D10133F7E701300378002BF2D11800D2
:10089000EFE70000F0B51F000E008DB00B90029145
:1008A000039212983478FFF7A1FE082200194378CA
:1008B000751C134053D12D2C53D17478B51C0133C2
:1008C0000193002F00D18AE0102F0AD1302C08D1DB
:1008D00020222B789343582B00D07AE010276C7895
:1008E0000235019B002B41D1013B04933E4B059304
:1008F0003A00FB1704980599089300F059FA002371
:1009000009900E00002000210A922200303A092AA4
:1009100031D81400A7423DDD5A1C1DD0B14236D853
:1009200002D1099B984232D8099B834206D18E425C
:1009300004D101230A9A5B42A2420DDB0B000200A4
:100940000899380000F054FAE31706940793069BC1
:10095000079CC018614101232C780135D5E72E0092
:100960009FE72B2CACD1B51C7478A9E70023049326
:1009700080231B06BBE72200413A192A01D8373CE5
:10098000C8E72200613A192A04D8573CC2E701237C
:100990005B42E1E75A1C09D10B9A23331360039B96
:1009A00004980599002B0ED10DB0F0BD019A002AD4
:1009B00004D006000F0000217042B941039A002ABA
:1009C000F2D0002B01D06B1E0293039B029A1A6097
:1009D000EAE73024002F00D083E7082781E7302C96
:1009E00000D175E70A277CE7FFFFFF7F37B51300CB
:1009F000064A05001068046A002C00D1044C0A0065
:100A000000942900FFF746FF03B030BD6491010850
:100A1000C8910108F0B51F000E0085B00390019148
:100A200002920A983478FFF7E1FD08220019437812
:100A3000751C134038D12D2C38D17478B51C013376
:100A40000093002F65D0102F09D1302C07D1202220
:100A50002B789343582B57D110276C7802350120FF
:100A60003900404200F018F90600012039004042E8
:100A700000F098F9002301228C4618005242210010
:100A80003039092917D80C00A74222DD002B1EDBC4
:100A90001300864205D301D1A44502DB012378432C
:100AA00020182C780135EAE72E00BAE72B2CC7D1A5
:100AB000B51C7478C4E721004139192901D8373CA5
:100AC000E2E721006139192903D8573CDCE713001C
:100AD000E7E7002B09DA22230120039A4042136042
:100AE000029B002B0AD105B0F0BD009A002A00D06D
:100AF0004042029A002AF6D0002B01D06B1E0193CF
:100B0000029B019A1A60EEE73024002FA7D1082734
:100B1000A5E7302C9BD00A27A1E7000037B51300CA
:100B2000064A05001068046A002C00D1044C0A0033
:100B300000942900FFF76EFF3EBDC0466491010896
:100B4000C89101080B1E04D0FF2A04D98A23036030
:100B50008B3B180070470A700123FAE77047704713
:100B6000689101084300504F534958002E0000205F
:100B7000202020202020202028282828282020204D
:100B800020202020202020202020202020202088FD
:100B90001010101010101010101010101010100461
:100BA00004040404040404040410101010101010B1
:100BB00041414141414101010101010101010101A5
:100BC00001010101010101010101101010101010BB
:100BD0004242424242420202020202020202020275
:100BE0000202020202020202020210101010200091
:100BF00000000000000000000000000000000000F5
:100C000000000000000000000000000000000000E4
:100C100000000000000000000000000000000000D4
:100C200000000000000000000000000000000000C4
:100C300000000000000000000000000000000000B4
:100C400000000000000000000000000000000000A4
:100C50000000000000000000000000000000000094
:100C60000000000000000000000000000000000084
:100C700002B4714649084900095C49008E4402BC2F
:100C80007047C04603B47146490840004900095AFC
:100C900049008E4403BC7047002243088B4274D342
:100CA00003098B425FD3030A8B4244D3030B8B426D
:100CB00028D3030C8B420DD3FF22090212BA030C76
:100CC0008B4202D31212090265D0030B8B4219D357
:100CD00000E0090AC30B8B4201D3CB03C01A524177
:100CE000830B8B4201D38B03C01A5241430B8B42BF
:100CF00001D34B03C01A5241030B8B4201D30B03A8
:100D0000C01A5241C30A8B4201D3CB02C01A5241CE
:100D1000830A8B4201D38B02C01A5241430A8B4291
:100D200001D34B02C01A5241030A8B4201D30B027A
:100D3000C01A5241CDD2C3098B4201D3CB01C01A94
:100D4000524183098B4201D38B01C01A524143099E
:100D50008B4201D34B01C01A524103098B4201D38C
:100D60000B01C01A5241C3088B4201D3CB00C01AF9
:100D7000524183088B4201D38B00C01A5241430871
:100D80008B4201D34B00C01A5241411A00D2014696
:100D9000524110467047FFE701B5002000F006F809
:100DA00002BDC0460029F7D076E770477047C046BD
:100DB000002B11D1002A0FD1002900D1002802D028
:100DC0000021C943081C07B4024802A14018029040
:100DD00003BDC046D9FFFFFF03B4684601B50298C2
:100DE00000F030F8019B9E4602B00CBC7047C04634
:100DF000F0B5CE46474615042D0C2E0080B50704ED
:100E0000140C3F0C9946030C7E435D4367436343D8
:100E10007F19340CE4199C46A54203D980235B0258
:100E20009846C4444B4643435143250C360465441D
:100E3000360C2404A4195B19591820000CBC9046E8
:100E40009946F0BDF0B54F464646D646C0B50400BB
:100E500082B00D00914698468B422FD82CD0414647
:100E6000484600F0B1F829000600200000F0ACF878
:100E7000331A9C46203B9A4600D576E04B465246B4
:100E800093401F004B46624693401E00AF4228D855
:100E900025D05346A41BBD41002B00DA7BE0002285
:100EA00000230092019301235246934001930123B2
:100EB00062469340009318E08242D0D9002200237A
:100EC000009201930A9B002B01D01C605D6000988A
:100ED000019902B01CBC90469946A246F0BDA342BF
:100EE000D7D900220023009201936346002BE9D05A
:100EF000FB079846414672080A437B0866460EE0A7
:100F0000AB4201D1A2420CD8A41A9D410120241960
:100F10006D410021013E24184D41002E06D0AB4208
:100F2000EED9013E24196D41002EF8D100980199A7
:100F3000534600196941002B23DB2B005246D34056
:100F40002A006446E2401C0053461500002B2DDBAE
:100F500026005746BE40330026006746BE4032009A
:100F6000801A994100900191ACE7624620239B1AB8
:100F70004A46DA406146130042468A4017001F4342
:100F800080E7624620239B1A2A0066469A40230087
:100F9000F3401343D4E76246202300219B1A00222A
:100FA000009101920122DA40019280E720236246FB
:100FB00026009B1ADE402F00B0466646B7404646E4
:100FC0003B003343C8E7C04610B5002903D100F009
:100FD00007F8203002E0081C00F002F810BDC046FF
:100FE0001C2101231B04984201D3000C10391B0A59
:100FF000984201D3000A08391B09984201D300091D
:10100000043902A2105C40187047C0460403020273
:10101000010101010000000000000000F0B5050022
:101020000C00002A12D006000E43F3070FD501274B
:1010300005E00E001E430C001D00374208D0611C65
:101040002478013A6B1C2C70002AF2D1F0BD030009
:10105000012A34D9B4072FD502275B1A5D188C1CDE
:101060000988023A2980AE1C2100012A2BD92500CB
:1010700035432F42F2D1032A10D92100171FBF0890
:10108000231DBF00FF18331B5D180C1D09682E1DA2
:1010900029602100A742F7D103231A40531E002ADA
:1010A000D4D022783270002BD0D062787270012BAD
:1010B000CCD0A378B370C9E70C001E00DBE7012297
:1010C0000C001E00EAE73300FAE7C046F0B55746C9
:1010D0004E46DE4645468A46E0B50400CEB2002ABA
:1010E0000BD083070FD0032502E01C001D420BD05C
:1010F000013A631C2670002AF7D13CBC9046994601
:10110000A246AB46F0BD0300032A30D95146FF2565
:101110000D40A9460D06494629438B465146090410
:101120008A46FF21A846554609040D4029005D4620
:101130000D434146141FA408A700A446090C1C1D1A
:101140003F190D4300E004341D6021002300A74235
:10115000F9D16346541F9B00E41A9307CDD00E705B
:10116000002CCAD04E70012CC7D08E70C5E7541E1B
:101170001900F4E70300002030B5013A08D31D78C8
:101180000C78A54205D0002803D1281B013AF6D2DD
:1011900030BD01330131F0E7F0B5C646040000B5BB
:1011A000884681421FD210188E1805003300002A8D
:1011B00015D037000743F90718D501239C4607E0EF
:1011C0001F0060462F43384210D0434610199E1826
:1011D000731E451E1878013A2870002AF0D12000AD
:1011E00004BC9046F0BDFFF719FFF8E7012A39D992
:1011F000B90735D50227981AAD1A8318023BA918EA
:101200001E880239023A0E80012A30D91E000E4390
:101210003742F2D1032A27D9151FAD08181FAD0098
:10122000451BCE1A181FF318191F03680B60030023
:101230008542F7D103231A40551E002ACFD0431E02
:101240001A784B1E1A70002DC9D0831E1A788B1E77
:101250001A70012DC3D00338037803390B70BEE731
:101260002900D7E701222900551E1800E5E70D00E7
:10127000F9E7C04604DF704730B597B00C00039023
:10128000282200210CA8FFF721FF02230B930BABB0
:1012900007932C23089303AB099304230121802097
:1012A00005940A93069300F0F1FC041E0FDD012360
:1012B000019305AB009307AA0223002100F0E8FC8C
:1012C0000500200000F0F0FC280017B030BD842598
:1012D0006D42F9E730B591B005002822002106A83B
:1012E000FFF7F4FE052305AC059301212733802089
:1012F000A5600394049300F0C9FC041E0EDD0023D6
:1013000003AA019300930021013300F0C1FC050002
:10131000200000F0C9FC280011B030BD84256D42CA
:10132000F9E7C04670B592B007AC06000D002C225C
:1013300000212000FFF7CAFE2C2301210493802006
:10134000143BA66003940595069300F09FFC041ED1
:101350000FDD0123019305AB009303AA01230021B4
:1013600000F096FC0500200000F09EFC280012B062
:1013700070BD84256D42F9E7F0B5C64600B592B060
:1013800007000E0015000021282208A89846FFF744
:101390009DFE072307AC0793012125338020A7601A
:1013A000039404930596069500F070FC041E14DD6A
:1013B0000123019305AB009303AA0123002100F050
:1013C00067FC4346069A05001A60200000F06CFC9A
:1013D000280012B004BC9046F0BD84256D42F7E7AA
:1013E00070B592B005000E002822002108A8FFF772
:1013F0006DFE0C2307932B6807AC23612C2301217E
:1014000004938020283BE66003940595069300F042
:101410003DFC041E0FDD0123019305AB009303AADD
:101420000123002100F034FC0500200000F03CFC0A
:10143000280012B070BD84256D42F9E7F0B595B073
:1014400004000F001600002128220AA8FFF73EFE24
:101450000D230993236809AD2B612C2301210693E9
:101460008020283B0394059507970896049300F085
:101470000DFC041E0FDD0123019303AB009305AAAD
:101480000223002100F004FC0500200000F00CFC09
:10149000280015B0F0BD84256D42F9E7F0B5C646C9
:1014A00000B594B004000F001600002128220AA8FD
:1014B0009846FFF70BFE0E230993236809AD2B61B5
:1014C0002C23012104938020283B05940395069347
:1014D0000797089600F0DAFB041E14DD022301933F
:1014E00005AB009303AA0123002100F0D1FB434682
:1014F000089A05001A60200000F0D6FB280014B0FE
:1015000004BC9046F0BD84256D42F7E7F0B597B076
:1015100004000F001600002128220CA81D00FFF770
:10152000D5FD23230B931C9B0D940E97002B5CD0B1
:101530001E9B07931F9B08931C9B09931D9B0A935B
:10154000209B0393219B0493102D51D8002E2BD068
:10155000002D28D0B3074ED1082D4CD93268AB08E6
:10156000119272681292022B05D0B2681392042B6A
:1015700001D1F368149303232A009A431300954280
:1015800011D0B15C0BAAD21811765A1C95420AD917
:101590000BA98918B25C02330A769D4203D90BAAC3
:1015A000D218F35C137615950BAB05932C23012110
:1015B0008020069300F06AFB051E00DC92E01C9B75
:1015C00001225C1EA341019203AA02330092002172
:1015D00005AA00F05DFB049A229B04001A60280013
:1015E00000F062FB200017B0F0BD1D9B002B9FD0C8
:1015F00087246442F6E76A46442133785218137010
:10160000012DD0D06A467378013152181370022D23
:10161000C9D06A46B378013152181370032DC2D075
:101620006A46F378013152181370042DBBD06A4614
:101630003379013152181370052DB4D06A4673798D
:10164000013152181370062DADD06A46B3790131BD
:1016500052181370072DA6D06A46F379013152183B
:101660001370082D9FD968462023327A1F394018FD
:10167000C254092D97D96846727A01334018C25472
:101680000A2D00D18FE76846B27A01334018C25460
:101690000B2D00D187E76846F27A01334018C25417
:1016A0000C2D00D17FE76846327B01334018C254CD
:1016B0000D2D00D177E76846727B01334018C25484
:1016C0000E2D00D16FE76846B27B01334018C2543B
:1016D000102D00D067E76846F27B01334118CA54E9
:1016E000159561E7842464427CE7C046F0B597B065
:1016F00004000F001600002128220CA81D00FFF78F
:10170000E5FC24230B931C9B0D940E97002B5CD0BF
:101710001E9B07931F9B08931C9B09931D9B0A9379
:10172000209B0393219B0493102D51D8002E2BD086
:10173000002D28D0B3074ED1082D4CD93268AB0804
:10174000119272681292022B05D0B2681392042B88
:1017500001D1F368149303232A009A43130095429E
:1017600011D0B15C0BAAD21811765A1C95420AD935
:101770000BA98918B25C02330A769D4203D90BAAE1
:10178000D218F35C137615950BAB05932C2301212E
:101790008020069300F07AFA051E00DC92E01C9B84
:1017A00001225C1EA341019203AA02330092002190
:1017B00005AA00F06DFA049A229B04001A60280022
:1017C00000F072FA200017B0F0BD1D9B002B9FD0D7
:1017D00087246442F6E76A4644213378521813702E
:1017E000012DD0D06A467378013152181370022D42
:1017F000C9D06A46B378013152181370032DC2D094
:101800006A46F378013152181370042DBBD06A4632
:101810003379013152181370052DB4D06A467379AB
:10182000013152181370062DADD06A46B3790131DB
:1018300052181370072DA6D06A46F3790131521859
:101840001370082D9FD968462023327A1F3940181B
:10185000C254092D97D96846727A01334018C25490
:101860000A2D00D18FE76846B27A01334018C2547E
:101870000B2D00D187E76846F27A01334018C25435
:101880000C2D00D17FE76846327B01334018C254EB
:101890000D2D00D177E76846727B01334018C254A2
:1018A0000E2D00D16FE76846B27B01334018C25459
:1018B000102D00D067E76846F27B01334118CA5407
:1018C000159561E7842464427CE7C046F0B5C646BE
:1018D00000B594B080460F001600002128220AA807
:1018E0001D00FFF7F3FB2F230993434609ACA360C8
:1018F0002C2306931A9B012103931B9B8020E760F6
:10190000059407960895049300F0C0F9041E14DDB1
:101910000123019303AB009305AA0223002100F0E9
:10192000B7F9049A1C9B05001A60200000F0BCF96E
:10193000280014B004BC9046F0BD84256D42F7E742
:1019400030B593B004002822002108A8FFF7BEFBA1
:101950003B230793236807AD2B612C2301210493BC
:101960008020283B05940395069300F08FF9041E10
:101970000FDD0123019305AB009303AA012300218E
:1019800000F086F90500200000F08EF9280013B061
:1019900030BD84256D42F9E770B592B005000E00A8
:1019A0002822002108A8FFF791FB332307932B6817
:1019B00007AC23612C23012104938020283BE6609F
:1019C00003940595069300F061F9041E0FDD0123D1
:1019D000019305AB009303AA0123002100F058F9FD
:1019E0000500200000F060F9280012B070BD8425C9
:1019F0006D42F9E7F0B5C6460700222000B592B067
:101A0000884616000021262268441D00FFF75EFB71
:101A100036230793434607ACA3803B68012123612B
:101A20002C238020039404930596069500F02EF94C
:101A3000041E10DD002303AA01930093002102334A
:101A400000F026F90500200000F02EF9280012B061
:101A500004BC9046F0BD84256D42F7E7F0B595B023
:101A600006000F001500002128220AA8FFF72EFB10
:101A70003A2309933B6809AC23612C230693143B5A
:101A800008930121143B8020059407960395049345
:101A900000F0FCF8041E0FDD0123019303AB00935B
:101AA00005AA0223002100F0F3F80500200000F051
:101AB000FBF8280015B0F0BD84256D42F9E7C0465B
:101AC00030B58BB00290039102A9049106930821CE
:101AD0000EAB0893042305917020073907920993F0
:101AE00000F0D4F8041E0EDD002304AA0193009335
:101AF0000021033300F0CCF80500200000F0D4F8FA
:101B000028000BB030BD84256D42F9E770B58CB06C
:101B1000039204AA08920822099203AA0A920422B4
:101B2000119D0B92109A0490059106920793002D37
:101B30001AD00121712000F0A9F8041E11DD012343
:101B4000019306AB009308AA0223002100F0A0F83D
:101B50000600200000F0A8F8079B2B6030000CB0B6
:101B600070BD84267642F9E787267642F6E7C046BE
:101B700030B589B002AB049308230290039105931A
:101B80000121043372200692079300F07FF8041EAF
:101B90000FDD0123019306AB009304AA012300216A
:101BA00000F076F80500200000F07EF8280009B06B
:101BB00030BD84256D42F9E730B587B002AB0493A0
:101BC00008230290039101217320059300F05EF831
:101BD000041E0EDD002304AA0193009300210133AB
:101BE00000F056F80500200000F05EF8280007B06D
:101BF00030BD84256D42F9E730B587B003AB04935F
:101C00000423039001214220059300F03FF8051EB4
:101C10000FDD002304AA019300930749013300F06C
:101C200037F80400280000F03FF8002C01DB20000A
:101C300000E0012007B030BDF303000030B589B0EB
:101C400003AB0493042303900791422001210593E1
:101C5000069200F01BF8051E10DD0123019306AB70
:101C6000009304AA0123074900F012F80400280099
:101C700000F01AF8002C01DB200000E0012009B080
:101C800030BDC046F20300000DDF70470CDF704727
:101C900000B585B00293079B0191039301A9069BB0
:101CA000FFF7F2FF05B000BD0EDF704707DF70479A
:101CB0000FDF704711DF704713DF704714DF704785
:101CC00017DF70470FB4F0B55746DE464E4645461F
:101CD000E0B595B01EAE08CE00249A4600235746C4
:101CE0009B4607960B933B78002B12D07A1C9046AC
:101CF000252B20D00BAD621C2C190B9223711F2AAF
:101D000024D8012347469C463B78E3441400002B2B
:101D1000ECD1002C04D021000CA806F01BFE83445B
:101D2000584615B03CBC90469946A246AB46F0BC1E
:101D300008BC04B018477B78253BDBB2532B01D994
:101D400000F09EFC854A9B00D3589F46002320212B
:101D50000CA80B9306F0FEFD0B9AD2E70023804AF5
:101D60000BAD984691462A004546B04616003033E2
:101D7000621C3419326023711F2A0BD84B4601357F
:101D80005B5D002B12D01400621C34193260237189
:101D90001F2AF3D9002320210CA8336006F0DAFDB6
:101DA0004B4601355B5D3268002BECD13300464673
:101DB000A8461D00331D019308AB924600210C225A
:101DC000180034689946FFF781F90F231A00494635
:101DD00064482240825CC3440A700392524698468B
:101DE00021090132002901D100F0D7FD4E461940EA
:101DF000415C7170260A01D100F010FE1E404B4676
:101E0000865D9E70230B01D100F031FE1900434620
:101E100019404B46415CD970230C01D100F04BFEB8
:101E20001E0043461E404B46865D1E71230D01D1A8
:101E300000F04AFE1900434619404B46415C597177
:101E4000230E01D100F076FE46461E404B46865DCD
:101E5000240F9E7101D100F090FE015DD97106231F
:101E60000293023398465346EB182A6019711F2AD1
:101E700001D900F06BFD541CAA182C6016711F2CA0
:101E800001D900F0A6FC029B002B01D100F05CFC04
:101E90004346DE1E4B469A5D631C2C192B60227153
:101EA0001F2B01D900F014FD002E01D100F078FCA9
:101EB0004246161F4A46925D5C1CEB182C601A7154
:101EC0001F2C01D900F02FFD002E01D100F092FC53
:101ED00043465E1F4B469A5D631C2C192B60227192
:101EE0001F2B01D900F071FD002E01D100F00AFD79
:101EF0004246961F4A46925D5C1CEB182C601A7194
:101F00001F2C06D9002320210CA82B6006F022FDEF
:101F10002C68002E01D100F017FD46464B46073EC7
:101F20009A5D631C2C192B6022711F2B01D900F0C4
:101F300077FC002E01D100F05AFD039A5C1CEB18CF
:101F40002C601A7108261F2C00D80FE200232021D4
:101F50000CA82B6006F0FEFC2C6807E2082C001091
:101F6000782D0010582D0010331D029308AB180077
:101F700036680C2200219946FFF7A8F8631C9A46A0
:101F8000002E00DAA6E30023B046012603930BAD32
:101F90000A214046FEF706FF4A463031CBB21370A5
:101FA0000A2140460593FEF777FE002801D100F094
:101FB000E9FC0A21FEF7F6FE4B463031CEB25E70E8
:101FC00064214046FEF768FE002801D100F017FDAD
:101FD0000A21FEF7E7FE3031CBB24A46FA21937070
:101FE000890040460193FEF757FE002801D100F01A
:101FF0002DFD0A21FEF7D6FE4B463031CEB2DE7003
:10200000E4494046FEF748FE002801D100F049FDB2
:102010000A21FEF7C7FE4A463031CBB21371DE49C2
:1020200040460193FEF738FE002801D100F055FD2F
:102030000A21FEF7B7FE4B463031CEB25E71D7496A
:102040004046FEF729FE002801D100F05BFD0A2181
:10205000FEF7A8FE4A463031CBB29371D0494046D4
:102060000193FEF719FE002801D100F075FD0A2149
:10207000FEF798FE4B463031CEB2DE71C94940467C
:10208000FEF70AFE002801D100F091FD0A21FEF7BB
:1020900089FE4A463031CBB21372C34940460193A0
:1020A000FEF7FAFD002801D100F0A0FD4B463030CC
:1020B000C6B25E72082304930233984653462C1925
:1020C0002B6026711F2B01D900F052FC5346019A58
:1020D0005C1CEB182C601A711F2C00D971E3049B57
:1020E000002B01D100F0CCFC4346DE1E4B469A5D2E
:1020F000631C2C192B6022711F2B00D9F1E3002ED9
:1021000001D100F0C9FC4246161F4A46925D5C1C94
:10211000EB182C601A711F2C01D900F0FBFB002E6C
:1021200001D100F0E3FC43465E1F4B469A5D631C01
:102130002C192B6022711F2B01D900F04FFC002EAF
:1021400001D100F0FDFC4246961F4A46925D5C1CA0
:10215000EB182C601A711F2C06D9002320210CA823
:102160002B6006F0F7FB2C68002E01D100F0EDFC8F
:102170004346DE1F4B469A5D631C2C192B6022716F
:102180001F2B00D955E3002E01D100F016FD464665
:102190004A46083E925D5C1CEB182C601A711F2C9D
:1021A00000D966E3002E01D100F029FD46464B46DA
:1021B000093E9A5D631C2C192B6022711F2B00D9DC
:1021C0005FE3002E00D16CE3059A5C1CEB182C60D9
:1021D0001A711F2C01D900F09BFC039E0A36B344F0
:1021E0000237029E7FE5331D32780BAD9846631CA3
:1021F0002C190B9322711F2B00D97DE201229446EA
:102200001C00E344464602376DE5331D019308ABDD
:1022100000210C22180035689946FEF757FF6349E4
:102220000F231A002A408A5C984692464A46504636
:1022300010702809621C002800D19FE24E46184009
:10224000085C70702E0A00D1ADE21E404B468E5DD8
:102250009E702B0B00D12BE31800434618404B46D1
:10226000085CD8702B0C00D14FE31E0043461E4083
:102270004B468E5D1E712B0D00D1BDE2180043460A
:1022800018404B46085C58712B0E00D1B2E346460D
:102290001E404B468E5D2D0F9E7100D1CEE3485DF2
:1022A000D87106230293023398460BAD2C190B927A
:1022B00020711F2A00D959E2541CAA182C601671EB
:1022C0001F2C00D928E2029B002B00D13CE24346A0
:1022D000DE1E4B469A5D631C2C192B6022711F2B4E
:1022E00000D921E2002E00D15AE24246161F4A468A
:1022F000925D5C1CEB182C601A711F2C00D91BE23C
:10230000002E00D176E243465E1F4B469A5D631C69
:102310002C192B6022711F2B00D939E2002E00D11D
:10232000F0E24246961F4A46925D5C1CEB182C6018
:102330001A711F2C00D93CE2002E00D104E346465E
:102340004B46073E9A5D631C2C192B6022711F2B94
:1023500000D9B5E2002E00D149E352465C1CEB18CF
:102360002C601A7108261F2C00D9EFE5B344023700
:10237000019EB8E425220BAD631C2C190B9322712E
:102380001F2B00D9C0E1012294461C00E344023710
:10239000A9E4C04610270000A086010040420F00BB
:1023A0008096980000E1F50500CA9A3B682D001060
:1023B000331D019308AB00210C22180035689946A3
:1023C000FEF784FEE1492BE7331D029308AB9946E3
:1023D00035680C2218000021FEF778FE0A2128003B
:1023E000FEF7E0FC4A463031CBB213700A212800D8
:1023F0000493FEF751FC631C9A46002800D103E2C7
:102400000A21FEF7CFFC4B463031CEB25E7064211C
:102410002800FEF741FC002800D1F8E20A21FEF76F
:10242000C1FC3031CBB29846FA214B464246890076
:102430009A702800FEF730FC002800D10FE30A2133
:10244000FEF7B0FC4B463031CEB2DE70C0492800FA
:10245000FEF722FC002800D119E30A21FEF7A2FCB6
:102460003031CBB298464B464246BA491A712800E1
:10247000FEF712FC002800D13CE30A21FEF792FC93
:102480004B463031CEB25E71B3492800FEF704FCF2
:10249000002800D149E30A21FEF784FC3031CBB299
:1024A00098464B464246AD499A712800FEF7F4FB28
:1024B000002800D159E30A21FEF774FC4B46303165
:1024C000CEB2DE71A6492800FEF7E6FB002800D157
:1024D00078E30A21FEF766FC3031CBB298464B46D2
:1024E0004246A0491A722800FEF7D6FB002800D108
:1024F00071E34B463030C6B25E7208230393023359
:10250000019353460BAD2C190B9326711F2B00D949
:1025100025E2534642465C1CEB182C601A711F2CB6
:1025200000D95FE1039B002B00D1ADE2019BDE1ED1
:102530004B469A5D631C2C192B6022711F2B00D90E
:10254000D8E1002E00D1B2E2019A5C1C161F4A4667
:10255000925DEB182C601A711F2C00D9ECE1002E53
:1025600000D1AEE2019B5E1F4B469A5D631C2C19A5
:102570002B6022711F2B00D91FE2002E00D1D0E268
:10258000019A5C1C961F4A46925DEB182C601A71EA
:102590001F2C06D9002320210CA82B6006F0DAF9A5
:1025A0002C68002E00D1D4E2019BDE1F4B469A5DC1
:1025B000631C2C192B6022711F2B00D941E1002EC6
:1025C00000D104E34A46019E5C1C083E925DEB1874
:1025D0002C601A711F2C00D943E1002E00D102E3B8
:1025E0004B46019E093E9A5D631C2C192B6022719B
:1025F0001F2B00D94DE1002E00D156E1049A5C1C3E
:10260000EB182C601A710A261F2C00D8E7E500236E
:1026100020210CA82B6006F09DF92C68DFE5331D06
:10262000994633681A789846002A25D000239A469E
:102630003B000BAD47469846631C2C1900262B60C7
:1026400022711F2B0AD80136BA5D002A11D01C0056
:10265000631C2C192B6022711F2BF4D953462021A7
:102660000CA801362B6006F075F9BA5D2B68002ABC
:10267000EDD147461C00B3444E460237FFF733FB0B
:10268000394B5B22994600230BAD9A46631C2C19EB
:1026900000272B6022711F2B0BD84A460137D25DD1
:1026A000002A12D01C00631C2C192B6022711F2BD6
:1026B000F3D9534620210CA82B6006F04BF94A466B
:1026C0000137D25D2B68002AECD1BB441C00474681
:1026D000FFF709FB0B932D230BAD2C1923715346E8
:1026E0001F2B00D9A1E17342984601239C46544612
:1026F0000226E24403934BE4002320210CA80B9311
:1027000006F028F90B9B79E5002320210CA80B93F8
:1027100006F020F90B9B36E6002320210CA82B6045
:1027200006F018F92C68CEE5002320210CA82B60B8
:1027300006F010F92B68D5E5002320210CA82B60AA
:1027400006F008F92C68DBE502260FE6582D00108C
:1027500010270000A086010040420F0080969800DC
:1027600000E1F50500CA9A3B7C2D001000232021D2
:102770000CA80B9306F0EEF80B9A9DE553460BADB3
:102780002C190B9223711F2A63D814000126EDE542
:10279000002320210CA82B6006F0DCF82B68BDE597
:1027A0001C000326E2E500230293023356469846B6
:1027B0007BE5002320210CA82B6006F0CBF82C68C9
:1027C000BAE5002320210CA82B6006F0C3F82C6882
:1027D00085E4002320210CA82B6006F0BBF82C68B0
:1027E000FFF751FB002320210CA82B6006F0B2F864
:1027F0002C6897E60426B9E5030030001E00032389
:1028000002930233984650E50BAD0B93049B2C19B1
:10281000237153461F2B00D9C0E154460126DEE444
:10282000002320210CA82B6006F094F82B68FFF7FA
:1028300080FB002320210CA82B6006F08BF82B686E
:10284000A1E4002320210CA82B6006F083F82B685C
:10285000B5E60B9020210CA806F07CF801260B9C15
:1028600084E5002320210CA82B6006F073F82C6867
:10287000B3E6002320210CA82B6006F06BF82C682F
:1028800090E4002320210CA82B6006F063F82B684D
:1028900097E4002320210CA82B6006F05BF82B683E
:1028A000A9E6039E1C00093699E41C00092696E45B
:1028B000030030001E000123029302339846F4E423
:1028C000002320210CA82B6006F044F82B6841E57A
:1028D000002320210CA82B6006F03CF82B68FFF7A2
:1028E000E3FA002320210CA82B6006F033F82B68B4
:1028F000FFF705FC002320210CA82B6006F02AF826
:102900002B681EE61C00052630E5022302930233E5
:102910009846CAE4002320210CA82B6006F01AF880
:102920002C68FFF7FCFB002320210CA82B6006F08D
:1029300011F82C68FFF7C8FA002320210CA82B609F
:1029400006F008F82C680AE606260FE50023202189
:102950000CA82B6005F0FEFF2A68FFF78CFA002315
:1029600020210CA80B9305F0F5FF0B9B9A46D0E5B0
:10297000002320210CA82B6005F0ECFF2B689A4661
:10298000FFF7A4FB53462B60059B2C19237153467C
:102990001F2B00D9FAE0544621E453460398EB1864
:1029A0002A6018711F2A00D8EFE629600CA82021A0
:1029B00005F0D0FF01262C68D8E4002320210CA8C4
:1029C0002B6005F0C7FF2B68D7E5002320210CA85A
:1029D0002B6005F0BFFF2B68FFF786FA002320214C
:1029E0000CA82B6005F0B6FF2B68FFF7A8FB1C00B6
:1029F0000726BBE4042302930233984655E4059B63
:102A000001930023049302339846FFF757FB049B7E
:102A10009846002303930233019372E50023029347
:102A20000233039E9846FFF71EFA002320210CA8CC
:102A30000B9305F08FFF0B9B9A4654E60300300082
:102A40001E0005230293023398462EE43300019EB4
:102A500001930123049302339846FFF72FFB3300C1
:102A600046469846012303930233019349E50B0040
:102A700031001E000123029302339846FFF7F3F959
:102A8000039E0236FFF7ABFB0226FFF7A8FB0223EB
:102A900003930233019334E5039E1C000336FFF7D2
:102AA0009EFB0223049302339846FFF707FB1C00AA
:102AB0000326FFF794FB0223029302339846FFF7A5
:102AC000D2F90426FFF78BFB0B0031001E00032315
:102AD000029302339846FFF7C6F93300019E019333
:102AE0000323049302339846FFF7E8FA039E043663
:102AF000FFF775FB330046469846032303930233E2
:102B00000193FEE40423049302339846FFF7D6FAB8
:102B1000002320210CA82B6005F01CFF2C68FFF778
:102B20005CFB1C000526FFF75AFB042303930233CA
:102B30000193E6E40423029302339846FFF793F9E6
:102B4000039E1C000536FFF74AFB039E0636FFF77F
:102B500046FB0626FFF743FB3300019E0193052346
:102B6000049302339846FFF7A9FA33004646984685
:102B70000523039302330193C3E40B0031001E00CD
:102B80000523029302339846FFF76DF92860202150
:102B90000CA805F0DFFE2C68FFF721FB0B9020212D
:102BA0000CA805F0D7FE01260B9CFFF718FB0623A7
:102BB000049302339846FFF781FA039E1C00073600
:102BC000FFF70DFB062303930233019399E41C00E6
:102BD0000726FFF704FB3300464698460723039376
:102BE000023301938DE40826FFF7F9FA3300019EC2
:102BF00001930723049302339846FFF75FFA039E7D
:102C00000836FFF7ECFAC046742300108026001047
:102C100080260010802600108026001080260010DC
:102C200080260010802600108026001080260010CC
:102C300080260010802600108026001080260010BC
:102C400080260010802600108026001080260010AC
:102C5000802600108026001080260010802600109C
:102C6000802600108026001080260010802600108C
:102C7000802600108026001080260010802600107C
:102C8000802600108026001080260010802600106C
:102C9000802600108026001080260010802600105C
:102CA000802600108026001080260010802600104C
:102CB000802600108026001080260010802600103C
:102CC000802600108026001080260010802600102C
:102CD000802600100A220010802600108026001096
:102CE000802600108026001080260010802600100C
:102CF00080260010802600108026001080260010FC
:102D0000E6210010681F00108026001080260010A9
:102D10008026001080260010681F001080260010FA
:102D200080260010802600108026001080260010CB
:102D3000802600105C1D00108026001080260010E8
:102D40001E26001080260010C823001080260010C8
:102D500080260010B023001030313233343536373E
:102D60003839616263646566303132333435363701
:102D70003839414243444546307800005B556E7314
:102D80007570706F72746564205461675D00000037
:102D90000000000000000000000000000000000033
:102DA000024A034BD358036000207047401C0108BF
:102DB000041C0000F0B5DE4657464E464546E0B5D9
:102DC000ABB000F06DF9002806D02BB03CBC9046AB
:102DD0009946A246AB46F0BD8021AD48090209F0F4
:102DE00059FD1AF0AFFC002800D098E00DF0DEFB92
:102DF0000028EAD113AF2C2200213800FEF766F933
:102E0000A44D8021012009064042FEF74FFFC30672
:102E100024D51EA91020FEF74BFF002828D11E9BA9
:102E20009A1C1BDB002B1CDB18D12C233A00002141
:102E30001F98FEF73FFF04002C281CD08424644216
:102E40001F9B210018000193FEF738FF802101200D
:102E500009064042FEF72AFFC306DAD4FEF730FF28
:102E6000CFE71F9B002118000193FEF727FFC8E75B
:102E7000FEF726FFD3E73B689946402BDED8202299
:102E8000002103A8FEF722F9202200210BA8FEF75B
:102E90001DF9259A239B0192002A00D0A2E0249AD2
:102EA0000192002A00D0E0E0002B00D0E2E0229B5B
:102EB0000193002BC2D001239A46039704942998CA
:102EC000269E002800D0DAE0289B0193002B00D03A
:102ED000D8E0279B0193002B24D101339B46002E81
:102EE00022D1209B51460193019A6B4B03A8EA50D3
:102EF0004B466A4A9B00D45800230BAAA047040003
:102F000000239846E0264246634B7601EA500021B2
:102F1000AA592800FEF7DAF84346AB5190E7932010
:102F2000404252E702239B460323F11C9C469943EF
:102F3000E0235B01EA589C1A8C4200D289E0AC186D
:102F400052185946EA500B940C96012928D0644631
:102F5000279EF11CA1439C1AA1427AD8AC185218A2
:102F60005946EA500D940E96022919D06446289EBF
:102F7000F11CA1439C1AA1426BD8AC1852185946B7
:102F8000EA500F94109604297FD16446C11CA143D6
:102F90009C1AA1425DD85118AA18E95011921290BA
:102FA000209B51460193019A3B4B03A8EA504B46A4
:102FB0003A4A9B00D4585B460BAAA0470023984688
:102FC0000BAE3400464680461F9B226801933100B9
:102FD000636801980136FEF76FFE08345E45F3D34F
:102FE00044468DE704229246039704940321E02689
:102FF000DA1C8A4376011100AA59B01A884228D3F4
:10300000032001248346A818804689181F9AA951D5
:103010000192210002000198FEF74CFE4146E300B8
:1030200003AAD15003A98C46A2001EA989180969D8
:10303000634401345960A24500D840E71EAB9C466A
:10304000624453695A46D91C9143AA59B01A814225
:10305000D9D90024104B00212800EC50FEF736F897
:10306000E0235B01EC508D3CEAE6032203970494D5
:103070009246BBE70222039704949246B6E70423E4
:103080009B4651E703239B464EE703239B4687E776
:10309000409C0008401C0108041C0000F073001054
:1030A0008A2210B5520100210248FEF70FF80020D5
:1030B00010BDC046483801080023F0B583B00600B3
:1030C00001A80D0014000193FFF76AFE00282CD11F
:1030D0002B68002B5AD1002C5BD02F4B2060196835
:1030E000002924D08A2292009A58002A32D08A22BB
:1030F000D2009A58002A31D0CF22D2009A58002A02
:1031000030D08A2212019A58002A2FD0234A9A5886
:10311000002A2FD0CF2212019A58002A2ED0204AFE
:103120009A58002A2ED08520404203B0F0BD0122DB
:1031300094460A015218920052180121D200019FB0
:10314000995099184F608E6061460C329B18296027
:103150002360EAE7022201219446EAE703220221E2
:103160009446E6E7042203219446E2E7052204217F
:103170009446DEE7062205219446DAE70722062177
:103180009446D6E7083207219446D2E78920404288
:10319000CBE787204042C8E748380108C80A00004A
:1031A000180F0000F0B5C646002300B582B00568D0
:1031B000804601A80193FFF7F3FD071E28D1013DCA
:1031C000072D2AD82C0160198000154E4019C00027
:1031D0003358012B21D133185A6801998A421CD1E6
:1031E0009B680C30013B30180022032B02D80D4A9B
:1031F0009B009A580021FDF769FF0023424664199D
:10320000A4006519ED0073517519AB606B60136014
:10321000380002B004BC9046F0BD87277F42F7E734
:1032200048380108F4740010002370B582B005001E
:1032300001A80E0014000193FFF7B2FD002816D17B
:10324000013E072E15D83101891989000A4A8919CA
:10325000C9008B58012B0CD153189E68AE4208D17F
:103260005B68019DAB4204D10C318918216002B02A
:1032700070BD89204042FAE748380108F0B5C646DB
:103280001400002200B582B00192012922D1013B35
:10329000012B1FD843682C2B1CD16368042B19D138
:1032A000036826681D69E368A76801AA35602900DC
:1032B00001209846FFF7B8FF002807D123003560AA
:1032C0000C334246390001980CF0D8F802B004BC27
:1032D0009046F0BD81204042F8E7C04630B500245A
:1032E00083B00139019401291AD8012B18D1436800
:1032F0002C2B15D15368042B12D1036884681969EB
:103300001368C56801AA19600120FFF78DFF002826
:1033100004D12A00210001980CF086F803B030BDDA
:1033200081204042FAE7C046F0B5002485B0009401
:10333000012931D1012B2FD15368042B2CD14368A3
:103340002C2B29D10368166819699D680191280002
:103350000021DF6800F0AEFB041E02D0200005B0A3
:10336000F0BD6A4601A90120FFF7A6FE041EF5D1B3
:10337000019B02A93360280000F0CCFB041E07D19A
:103380003B000299039A00980CF040F8041EE5D027
:103390003000FFF707FFE1E781246442DEE7C04623
:1033A000F0B5002485B00094012931D1012B2FD133
:1033B0005368042B2CD143682C2B29D10368166841
:1033C00019699D68019128000021DF6800F072FBF7
:1033D000041E02D0200005B0F0BD6A4601A90120FC
:1033E000FFF76AFE041EF5D1019B02A93360280095
:1033F00000F090FB041E07D13B000299039A00984D
:103400000CF00BF8041EE5D03000FFF7CBFEE1E72F
:1034100081246442DEE7C046F0B5C64614000022AF
:1034200000B5013984B00392012926D8013B012B54
:1034300023D843682C2B20D16368042B1DD103684B
:1034400085681969E368C66898462368A7680120FB
:103450001960E26003AAFFF7E7FE002809D143469E
:103460000C34009301943B003200290003980CF0C7
:103470003DF804B004BC9046F0BD81204042F8E71E
:10348000F0B5C6461400002200B582B001920129B1
:1034900028D1013B012B25D843682C2B22D163680E
:1034A000042B1FD1036826681969E368A768012007
:1034B0003160E26001AA9846FFF7B6FE051E04D00F
:1034C000280002B004BC9046F0BD230042460C33F5
:1034D000390001980CF0C0F8051EF1D13000FFF75B
:1034E00061FEEDE781256D42EAE7C04630B5002474
:1034F00083B00194012922D1012B20D143682C2BC8
:103500001DD15368042B1AD103681568196901AAE3
:1035100029600120FFF788FE002802D0200003B0B8
:1035200030BD01980BF080FE04002800002C03D170
:10353000FFF738FE0400F1E7FFF734FEEEE78124E1
:103540006442EBE7862040427047C04686204042F6
:103550007047C04670B5002482B00094012923D181
:10356000012B21D15368042B1ED143682C2B1BD176
:10357000016815680B69CE6801936A462B6001A942
:103580000320FFF799FD041E02D0200002B070BD99
:10359000019B31002B6000980AF0F6FD041EF4D068
:1035A0002800FFF7FFFDF0E781246442EDE7C04605
:1035B00030B5002483B00139019401291AD8012BB8
:1035C00018D143682C2B15D15368042B12D10368F2
:1035D000846819691368C56801AA19600320FFF798
:1035E00023FE002804D12A00210001980AF00EFED3
:1035F00003B030BD81204042FAE7C046F0B5C64670
:103600001400002200B582B00192012928D1013BAB
:10361000012B25D843682C2B22D16368042B1FD1A2
:10362000036826681969E368A76803203160E260CF
:1036300001AA9846FFF7F8FD051E04D0280002B045
:1036400004BC9046F0BD230042460C33390001987B
:103650000AF0E6FD051EF1D13000FFF7A3FDEDE70E
:1036600081256D42EAE7C046F0B5002483B00139F8
:103670000194012921D8012B1FD143682C2B1CD187
:103680005368042B19D10368156819698668C768DF
:1036900001AA29600320FFF7C7FD041E02D0200005
:1036A00003B0F0BD3A00310001980AF0BFFE041EDD
:1036B000F5D12800FFF776FDF1E781246442EEE7BB
:1036C00030B5002483B00194012922D1012B20D1EF
:1036D00043682C2B1DD15368042B1AD1036815683D
:1036E000196901AA29600320FFF79EFD002802D076
:1036F000200003B030BD01980AF0F8FC0400280057
:10370000002C03D1FFF74EFD0400F1E7FFF74AFD5F
:10371000EEE781246442EBE710B5002482B0009408
:10372000019401291ED1012B1CD143682C2B19D1E6
:103730005368042B16D10368146819696A4603207C
:10374000FFF772FD002801D002B010BD01AA2100D0
:103750000330FFF7B1FC0028F6D1019900980BF077
:1037600017F8F1E781204042EEE7C04630B5013955
:1037700083B0012915D8012B13D843682C2B10D105
:1037800003685468DD6881681368C0680094002489
:10379000043214600192020028000AF066FE03B0B1
:1037A00030BD81204042FAE710B5013982B00229CC
:1037B00010D8002B0ED143682C2B0BD10468036961
:1037C000C2688168E4684069009020000AF0B5FF93
:1037D00002B010BD81204042FAE7C046F0B5C646AF
:1037E000002400B584B00094012936D1012B34D1D6
:1037F0005368042B31D143682C2B2ED1056800214E
:103800002B69AE680193EB6830001768984600F0AA
:1038100051F9041E04D0200004B004BC9046F0BD51
:103820002B696A463B6001A90220FFF745FC041E94
:10383000F1D1019B02A93B60300000F06BF9041E3E
:1038400007D143460299039A00980BF0F3F8041E3F
:10385000E1D03800FFF7A6FCDDE781246442DAE717
:10386000F0B5C646002400B584B00094012936D1D5
:10387000012B34D15368042B31D143682C2B2ED12A
:10388000056800212B69AE680193EB68300017686A
:10389000984600F00FF9041E04D0200004B004BCC8
:1038A0009046F0BD2B696A463B6001A90220FFF7F4
:1038B00003FC041EF1D1019B02A93B60300000F023
:1038C00029F9041E07D143460299039A00980BF088
:1038D000B8F8041EE1D03800FFF764FCDDE781246E
:1038E0006442DAE730B5002483B00139019401293C
:1038F0001AD8012B18D143682C2B15D15368042BEF
:1039000012D10368846819691368C56801AA19602F
:103910000220FFF789FC002804D12A002100019829
:103920000BF096F803B030BD81204042FAE7C04664
:10393000F0B5C6461400002200B582B001920129FC
:1039400028D1013B012B25D843682C2B22D1636859
:10395000042B1FD1036826681969E368A768022051
:103960003160E26001AA9846FFF75EFC051E04D0B4
:10397000280002B004BC9046F0BD230042460C3340
:10398000390001980BF094F8051EF1D13000FFF7D3
:1039900009FCEDE781256D42EAE7C046F0B5002459
:1039A00083B001390194012921D8012B1FD143682B
:1039B0002C2B1CD15368042B19D103681568196985
:1039C0008668C76801AA29600220FFF72DFC041E43
:1039D00002D0200003B0F0BD3A00310001980BF096
:1039E00096F8041EF5D12800FFF7DCFBF1E78124EF
:1039F0006442EEE730B5002483B00194012922D15E
:103A0000012B20D143682C2B1DD15368042B1AD1D4
:103A100003681568196901AA29600220FFF704FCF0
:103A2000002802D0200003B030BD01980AF0DAFE71
:103A300004002800002C03D1FFF7B4FB0400F1E7D9
:103A4000FFF7B0FBEEE781246442EBE786204042BB
:103A50007047C046862040427047C046F0B5060019
:103A60008BB00F001500002820D0002A1ED06C4615
:103A7000282200212000FDF729FB2B0007CC07C3DB
:103A800007CC07C307CC07C3002022681A60B38A9B
:103A90002B8033686B60F3682B61B3686B613369AB
:103AA0006B807368AB60EF600BB0F0BD812040426B
:103AB000FAE7C046002330B583B0040001A80D002A
:103AC0000193FFF76DF9002817D1104B002203E096
:103AD00001320C33202A12D019790029F8D0196844
:103AE000A142F5D153000A499B189B005B580199EC
:103AF0008B4207D1002D00D02A6003B030BD882052
:103B00004042FAE785204042F7E7C0468C49010869
:103B100088490108002330B583B0050001A80C00D6
:103B20000193FFF73DF9002804D1002C04D0019B3C
:103B30002560636003B030BD81204042FAE7C04693
:103B4000074A002303E001330C32202B05D0117803
:103B50000029F8D10360002070478D204042FBE728
:103B60009049010830B5040083B00D001F2810D81B
:103B700001A8FFF715F9002809D16300064A1B19AF
:103B800001999B009950D31801225D601A7203B00D
:103B900030BD87204042FAE788490108862040422C
:103BA0007047C046862040427047C046F0B5CE46BA
:103BB000474680B502399BB0012963D8012B61D1FA
:103BC00043682C2B5ED1C368182B5BD15368042B40
:103BD00058D113688568066947692822002106A81C
:103BE0009846FDF773FA002300240393274B03E064
:103BF00001340C33202C42D01A78002AF8D103A8C3
:103C0000FFF7CEF8002804D01BB00CBC90469946B4
:103C1000F0BD039B9946002D34D02822002110A826
:103C2000FDF754FA282210A906A8FDF7F7F9AB8A88
:103C300002AA13822B6831000793EB6806A80A9347
:103C4000AB680B932B6953826B683A00019308931E
:103C50004B46099304AB0AF09DF94346049A1A6057
:103C60000028D1D163000A4A1C19039BA400A35069
:103C700043461B681419636001232372C4E78D2037
:103C80004042C1E781204042BEE7C046904901085A
:103C90008849010870B584B0022944D1012B42D172
:103CA00043682C2B3FD1C368042B3CD15368042BB1
:103CB00039D1836816681D6800241C4B03E0013469
:103CC0000C33202C26D01A78002AF8D101A8FFF74F
:103CD00067F800281CD1019B154A0393C0231B06DB
:103CE000EB180295934218D902AA280003990CF008
:103CF000E2FD029B336000280AD163000D4A1C19C3
:103D0000019BA400A350336814196360012323723C
:103D100004B070BD8D204042FAE7320028000399BC
:103D200000F05EFBF4E781204042F1E79049010892
:103D3000FFFFFF3F8849010870B582B0012933D1E8
:103D4000002B31D142682C2A2ED102686846946833
:103D50000093FFF725F8002821D1154B002203E03E
:103D600001320C33202A1CD019790029F8D01968A7
:103D70008C42F5D1852055000E4EAD18AD00A959E5
:103D8000009B404299420AD12000009401910CF01E
:103D9000A7FD002803D1A85175196860287202B0E8
:103DA00070BD88204042FAE781204042F7E7C046D4
:103DB0008C4901088849010870B582B0012933D1C6
:103DC000002B31D142682C2A2ED1026868469468B3
:103DD0000093FEF7E5FF002821D1154B002203E0F8
:103DE00001320C33202A1CD019790029F8D0196827
:103DF0008C42F5D1852055000E4EAD18AD00A95965
:103E0000009B404299420AD120000094019109F0A0
:103E1000ACFF002803D1A85175196860287202B060
:103E200070BD88204042FAE781204042F7E7C04653
:103E30008C4901088849010870B590B001295AD110
:103E4000012B58D143682C2B55D15368182B52D1D4
:103E5000036816680021282206A89C68FDF736F939
:103E6000002304A80493FEF79BFF051E1DD1234BDE
:103E7000002203E001320C33202A39D019790029BD
:103E8000F8D019688C42F5D1852553009A181C4B3F
:103E90009200D358049A6D42934206D1002303A89E
:103EA0000393FEF77DFF051E02D0280010B070BD01
:103EB000039906AA20000494059109F0ABFF051EA2
:103EC000F3D1002E17D0182200213000FDF7FEF8A4
:103ED00002AB1B8AB382079B33600A9BF3600B9B88
:103EE0000193B36002AB5B8A3361089B7360DCE7CC
:103EF00088256D42D9E781256D42D6E78C490108B6
:103F00008849010870B598B0012948D1012B46D1E4
:103F100043682C2B43D15368182B40D114680021DF
:103F2000282204A8FDF7D2F803A8FEF739FF051EE2
:103F300002D0280018B070BD039E002C2FD028227C
:103F400000210EA8FDF7C2F80EA9282204A8FDF74B
:103F500065F8A38A02AA1381236804A80593E3687D
:103F60000893A368099323695381636807960693AE
:103F700009F024FF182200212000FDF7A7F802AB6A
:103F80001B89A382059B2360089BE360099B019327
:103F9000A36002AB5B892361069B6360C9E781254F
:103FA0006D42C6E7F0B5150085B0012934D1012B6B
:103FB00032D843682C2B2FD1036802A89C680023B9
:103FC000166857680293FEF7EBFE00281FD1144BCA
:103FD000002203E001320C33202A1AD0197900297B
:103FE000F8D019688C42F5D1852053009A180D4BF2
:103FF0009200D158029B4042994208D10435009565
:104000003B00320020000294039109F087FF05B0C5
:10401000F0BD88204042FAE781204042F7E7C046E1
:104020008C49010888490108F0B5150085B00129BF
:1040300040D1012B3ED843682C2B3BD1036802A80A
:104040009C680023166857680293FEF7A9FE0028B3
:1040500025D11A4A002103E001310C32202920D059
:1040600010790028F8D013689C42F5D185204B00C8
:104070005918134B8900CB58029A404293420ED1F3
:1040800020000393029400F087F92B1D00280BD128
:10409000009332003B000298039909F05DFF05B0E0
:1040A000F0BD88204042FAE73A003100200000F0DD
:1040B00025FAF4E781204042F1E7C0468C49010827
:1040C0008849010870B582B0012933D1002B31D164
:1040D00042682C2A2ED10268684694680093FEF745
:1040E0005FFE002821D1154B002203E001320C3382
:1040F000202A1CD019790029F8D019688C42F5D1F2
:10410000852055000E4EAD18AD00A959009B4042C8
:1041100099420AD12000009401910CF0FAFB00288A
:1041200003D1A85175196860287202B070BD88204B
:104130004042FAE781204042F7E7C0468C49010837
:1041400088490108F0B5CE46474680B59DB00229A2
:1041500000D08DE0012B00D08AE043682C2B00D0EA
:1041600086E05368042B00D082E0C368182B00D08F
:104170007EE0036887689E6813680021282208A8EB
:104180009846FCF7A3FF0023002403933B4B03E076
:1041900001340C33202C68D01A78002AF8D103A8F7
:1041A000FEF7FEFD051E05D028001DB00CBC904694
:1041B0009946F0BD039B9946002F59D02822002133
:1041C00012A8FCF783FF282212A908A8FCF726FFF3
:1041D000BB8A02AA13833B6806A80993FB680C9369
:1041E000BB680D933B6953837B68069501930A93E3
:1041F0004B460B93FEF7D4FD051ED5D1204B002274
:1042000003E001320C33202A35D019790029F8D087
:1042100019688E42F5D1852553009A18194F9200DE
:10422000D359069A6D429342BED1002304A8049349
:10423000FEF7B6FD051EB7D1049904AB08AA3000FD
:104240000696079109F0D5FE4346049A051E1A60AA
:10425000AAD16300039A1B199B00DA5142461268E7
:10426000FB185A6001221A729EE78D256D429BE76A
:1042700081256D4298E788256D4295E790490108B0
:104280008C49010888490108F0B59BB0022957D133
:10429000012B55D143682C2B52D1C368182B4FD119
:1042A0005368042B4CD1166885682822002106A883
:1042B000FCF70CFF002300240393234B03E001349D
:1042C0000C33202C39D01A78002AF8D103A8FEF735
:1042D00067FD002801D01BB0F0BD039F002D2FD03B
:1042E0002822002110A8FCF7F1FE282210A906A818
:1042F000FCF794FEAB8A02AA13822B6804A90793E9
:10430000EB6806A80A93AB680B932B6953826B6822
:104310000997019308930CF0F9F8049B3360002887
:10432000D9D16300094A1C19039BA400A350336828
:104330001419636001232372CDE78D204042CAE740
:1043400081204042C7E7C0469049010888490108DA
:1043500010B504008CB02822002102A8FCF7B6FE9C
:1043600069462000FFF7D6FB03000020002B01D098
:104370000CB010BD02AA0098019909F04BFD00286D
:1043800005D0200019F032FF19F0B4FEF0E702A8C2
:1043900009F014FDF5E7C04610B504008CB02822E2
:1043A000002102A8FCF792FE69462000FFF7B2FB4D
:1043B00003000020002B01D00CB010BD02AA009811
:1043C000019909F027FD002805D0200019F00EFF03
:1043D00019F0ACFFF0E702A809F0F0FCF5E7C046E1
:1043E00030B5A9B0040004900591150000212822E1
:1043F0000DA8FCF76BFE442320000C9319F07AFE05
:1044000000284DD008A8FFF79BFB002801D029B059
:1044100030BD0AAA09A9200019F092FF0028F6D1A0
:1044200002A8844616210CAB00930BAA17AB61447B
:1044300020001AF047F80028E9D1099B11930A9B44
:10444000129302ABD98A159B0393002B25D000232E
:1044500000220DA809F0BDFC0B9B134A934200D922
:10446000124B02AAD38500230E930F93059B17A925
:10447000039310930C9A04AB0DA809F08BFD0499DB
:1044800029600028C3D10898FFF76CFB0028BED133
:104490002868210019F03CFEB9E702AB9985DBE7FB
:1044A0008C204042B3E7C046F8FF0000FFFF000049
:1044B00070B51E000C00150084B019F097FE0A9B21
:1044C0002A000293099B21000193089B009333006B
:1044D0001AF0CEF804B070BD70B51E000C001500C7
:1044E00082B019F083FE079B2A000193069B2100EE
:1044F000009333001AF07CF902B070BD70B515005E
:104500001E000C0019F072FE33002A0021001AF080
:104510002DFA70BDF0B5DE4657464E464546E0B52D
:1045200001398FB01400022941D8012B3FD84368CC
:104530002C2B3CD105684769EB68AE680993AB6AE0
:1045400000210A9383689846C368994613689A467F
:1045500053689B46036930000B9300235360FFF7B9
:10456000A9FA002806D00FB03CBC90469946A24656
:10457000AB46F0BD0CA93000FFF7CCFA0028F2D111
:104580005A460692524605924A46049242462B00EB
:1045900003920B9A043401920A9A183300920794FA
:1045A0000297099A0C980D990BF0ACF8DBE7812083
:1045B0004042D8E7F0B5DE4657464E464546E0B5A0
:1045C00001398FB01400022941D8012B3FD843682C
:1045D0002C2B3CD105684769EB68AE680993AB6A40
:1045E00000210A9383689846C368994613689A46DF
:1045F00053689B46036930000B9300235360FFF719
:1046000059FA002806D00FB03CBC90469946A24605
:10461000AB46F0BD0CA93000FFF77CFA0028F2D1C0
:104620005A460692524605924A46049242462B004A
:1046300003920B9A043401920A9A18330092079459
:104640000297099A0C980D990BF0DCF8DBE78120B2
:104650004042D8E7862040427047C046862040420C
:104660007047C046862040427047C0468620404280
:104670007047C046862040427047C0468620404270
:104680007047C046862040427047C0468620404260
:104690007047C046862040427047C0468620404250
:1046A0007047C046F0B5D6464F464646C0B50139BC
:1046B00086B01400012941D8012B3FD843682C2B28
:1046C0003CD1036887689D68DE68C368002198460E
:1046D00013682800994653689A46FFF7EBF90028BB
:1046E00005D006B01CBC90469946A246F0BD2800F5
:1046F000FFF72EFE002814D104A92800FFF70AFABC
:104700000028EED1534602934B46019343460434AE
:10471000009303943B003200049805990AF02CFAA8
:10472000DFE7534601934B4604340093029443461B
:104730003A0031002800FFF7BBFED2E7812040425B
:10474000CFE7C046F0B5CE46474680B5013987B0C1
:1047500002293AD8002B38D143682C2B35D1036875
:1047600086689C68DD680369C768984643690021CC
:1047700020009946FFF79EF9002804D007B00CBC32
:1047800090469946F0BD2000FFF7E2FD002811D1C8
:1047900004A92000FFF7BEF90028EFD14B46029391
:1047A0004346009701932A003300049805990AF0C4
:1047B00023FBE3E74B460193434632000093290075
:1047C0003B002000FFF788FED8E781204042D5E774
:1047D000F0B5DE4657464E464546E0B5013995B040
:1047E0001400022950D8012B4ED843682C2B4BD1F2
:1047F000036856689D68DF68836800210693C36874
:1048000098460369994643690AA89A46136828227C
:104810009B46FCF75BFC00212800FFF74BF90028C2
:1048200006D015B03CBC90469946A246AB46F0BDBA
:1048300008A92800FFF76EF90028F2D10AAA089803
:10484000099909F0E7FA0028EBD102AB5B8C0AA8C2
:10485000079302AB1D8C09F0B1FA114B1D40114BAF
:104860009D4214D05B460393534602934B460193FB
:1048700043460434009305940496069B3A00089836
:1048800009990AF0B7FBCCE781204042C9E7079BB2
:104890000733DB089E42E5D28A204042C1E7C0468A
:1048A000FFCFFFFF01400000F0B5DE4657464E4601
:1048B0004546E0B501398BB01400022937D8012BE9
:1048C00035D843682C2B32D1036886689D68DB6835
:1048D000C7680793036900219846436928009946F1
:1048E00013689A4653689B46FFF7E4F8002806D001
:1048F0000BB03CBC90469946A246AB46F0BD08A919
:104900002800FFF707F90028F2D15B4604935346CD
:1049100003934B4602934346043401930594009756
:104920003300079A089809990AF0F8FBE0E781201C
:104930004042DDE770B5002482B00094012927D100
:10494000012B25D15368042B22D143682C2B1FD176
:104950000368166819696A460191042001A9DD6897
:10496000FEF7AAFB041E0AD1019B009833600A4B94
:104970009D4207D029000BF0DDFB041E04D120006E
:1049800002B070BD0560FAE73000FEF70BFCF6E7F9
:1049900081246442F3E7C046000F00B030B583B015
:1049A00001291AD1012B18D143682C2B15D153683A
:1049B000042B12D1002403681568196901AA042088
:1049C0000194FEF731FC002802D02C6003B030BD0A
:1049D000290001980BF020F9F8E781204042F5E723
:1049E00010B582B0012914D1002B12D142682C2AB3
:1049F0000FD1026804201169546901AA0193FEF7DE
:104A000013FC002803D1210001980BF00FF902B02C
:104A100010BD81204042FAE7F0B5C64600B5013925
:104A200082B001293ED8002B3CD142682C2A39D1D2
:104A30000268C768968811698268042090466A46B1
:104A40000093FEF7F1FB041E0BD1009D1A4B2A6860
:104A50009A420BD03B004246310028000BF090FBFD
:104A60000400200002B004BC9046F0BD134B9E42EF
:104A70001BD101A8FEF794F9041EF2D13E1D3100AE
:104A8000012007F037FFA861002811D0042201A9F6
:104A9000FCF7C4FAAB693A00181D4146FCF7BEFAB0
:104AA000EE61DEE781246442DBE787246442D8E7D5
:104AB0008D246442D5E7C046000F00B0010200001B
:104AC00030B583B0012916D1012B14D843682C2BA3
:104AD00011D130CA036801AA196900230420019387
:104AE000FEF7A2FB002804D12A00210001980BF058
:104AF000ABF803B030BD81204042FAE770B584B016
:104B0000012925D1002B23D142682C2A20D102680B
:104B1000002194689688200015690193FEF7CAFF6A
:104B2000002801D004B070BD01AA29000430FEF7AE
:104B30007BFB0028F6D102A92000FEF7EBFF00283E
:104B4000F0D1029A039B310001980BF020FBE9E7BA
:104B500081204042E6E7C046F0B593B0022940D13B
:104B6000012B3ED143682C2B3BD1C368182B38D185
:104B70005368042B35D1036885681C6900231668C7
:104B80000021282208A80393FCF7A0FA03AA210019
:104B90000420FEF749FB002801D013B0F0BD05A8A2
:104BA000FEF7CEFF0028F8D104A8FEF7F9F8002898
:104BB000F3D108AA04992800FEF750FF0028ECD191
:104BC00003991A4B0A689A420ED006AA08A80BF05D
:104BD00059FA0028E1D1069931600598FEF7C2FF25
:104BE000DBE781204042D8E76B465C8C0734E40861
:104BF000402C14D80D00CF69DD35FF3588690023BE
:104C0000019400950022390019F06EF8002809D1AE
:104C100006AB2200290008A809F0BCF9D9E78D20CD
:104C20004042BAE793204042B7E7C046000F00B0C9
:104C300070B582B001293BD1012B39D143682C2BAF
:104C400036D15368042B33D1036816681C690023DE
:104C500001AA0193210034600420FEF7E5FA002543
:104C600000280DD13460019C134B22689A420AD06F
:104C700020000AF047FE051E15D03000FEF792FA1C
:104C8000280002B070BDA069002806D0E2690021AA
:104C9000FCF71CFAA06907F035FE8722002192007C
:104CA0002000FCF713FA3000FEF77CFA0500E7E776
:104CB00081256D42E4E7C046000F00B0F0B5C6465E
:104CC00000B5013986B001292DD8002B2BD14268BF
:104CD0002C2A28D10268C1689468876888460393A3
:104CE0000021200015699688FEF7E4FE002803D015
:104CF00006B004BC9046F0BD03AA29000430FEF7BC
:104D000093FA0028F4D104A92000FEF703FF00283D
:104D1000EED1434600970193049A059B3100039816
:104D20000BF068FAE4E781204042E1E710B5012981
:104D300008D1012B06D843682C2B03D103CA0BF0F2
:104D4000ADFA10BD81204042FBE7C046F0B5D64623
:104D50004F464646C0B5013986B0140001292FD808
:104D6000012B2DD843682C2B2AD1036812689D682B
:104D70009046DE686268C368876800212800914613
:104D80009A46FEF797FE002805D006B01CBC904658
:104D90009946A246F0BD04A92800FEF7BBFE0028F4
:104DA000F3D14B4602934346019353460434009398
:104DB00003943B000499059A30000BF099FAE4E75C
:104DC00081204042E1E7C04630B51B4C0569A5444F
:104DD00014A90291802104AAC9000400036A009268
:104DE00001950391402D23D814498B421BD9144BB4
:104DF000A168606819602B000021FCF75BFF854209
:104E000013D1012302AA0121684600F0D9FA051E38
:104E100005D1039B6068029A0021FCF74DFF280032
:104E2000084B9D4430BD0393E1E784256D42F6E7CE
:104E300087256D42F3E7C046ACFBFFFFFF03000090
:104E40000076010854040000F0B5CE46474680B510
:104E5000A9B000F0A1FA002822D15C4B17AC98460B
:104E60004123994603AE04AF802101200906404248
:104E7000FCF71CFFC30615D4830623D4430610D5C4
:104E80000BA94020FCF714FF0028EDD10B98831CE0
:104E90004BDB002859DA00210C98FCF70FFFE3E701
:104EA000FEE7FEE721001020FCF702FF0028DBD11F
:104EB00023689A1C48DB002B3CDA00216068FCF771
:104EC000FDFED1E721002020FCF7F2FE0028CBD127
:104ED00021688B1C2DDB0029EFDB2AD12269236A94
:104EE000059606920B970C936068042A1ED1042B3A
:104EF0001CD14246A56815603200FCF7DBFE236931
:104F0000984213D101230BAA190005A800F08AFAD0
:104F1000051E05D10C9B0B9A00216068FCF7CCFEA6
:104F200029006068FCF7CAFE9EE7FEE787256D4210
:104F3000F6E7FEE7002B07D12000FFF745FF010051
:104F40006068FCF7BBFE8FE7FEE70028EDD14B461B
:104F500006930123089303330A93149B0594079641
:104F600009970193012B2ED1159B0193042B2AD174
:104F70000D9B010001934346019A1A60032305AA81
:104F800000F084FA139A049B050001929A4217D309
:104F90000C98002D0FD122002900FCF78DFE089BF4
:104FA000320001210C98FCF787FE0A9B3A0002218F
:104FB0000C98FCF781FE29000C98FCF77FFE53E764
:104FC0008A256D42F7E787256D42F4E700760108F0
:104FD000F0B5DE4657464E464546E0B5CDB0060034
:104FE0000D00924600F08CFA041E09D000F0B2FACF
:104FF00020004DB03CBC90469946A246AB46F0BD61
:10500000072300955B420022002112A800F00EFB4E
:10501000002804D002240128E8D00524E6E7320065
:10502000CA4912A800F082FB08AB18000822002130
:105030000293FCF74BF8C64B0AAE9946C54B0024C9
:105040009B463F233500984630004B461B885B4506
:1050500000D01AE14B465F884F44002C00D120E17C
:1050600021000422FBF7DAFF28006B880433E418E0
:10507000A74206D809E16B880433E418A74200D898
:1050800003E104222100FBF7C9FF41462B882800D9
:105090009A111142EFD16A881942D6D1029B2E0093
:1050A0005A601A0004340894AB4912A800F03EFB81
:1050B000300000F07DFA041E98D1A84912A83200F1
:1050C00000F034FB2023310006A8069318F0ACFD55
:1050D000002800D0E7E0029B069AA1495A6012A876
:1050E0001A00089600F022FB300000F043FB041E7B
:1050F00000D07BE70A9B0A9ADB179A4912A800F0B6
:1051000007FB944B3F279B460AAB98464B461B88B0
:105110005B4500D0C9E04B465D884D44002C00D172
:10512000C7E03000464621000422FBF777FF738872
:105130000433E418A54206D8B7E073880433E418B2
:10514000A54200D8B1E0042221003000FBF766FF41
:1051500033889A111742F0D172883B40022BD5D187
:10516000211D022A00D10FE1042A00D1EAE0012A20
:1051700000D052E723790A930A9B9AB27A4B9A425B
:1051800000D94AE70023794912A800F0C1FA12A811
:1051900000F0BCFA00278046BB464B466D4A1B8890
:1051A000934200D07FE04B465B88714A4B440393A7
:1051B000934215D9140030000AAD04222100FBF7F8
:1051C0002DFF3F222B8828009B111340BB4200D1AA
:1051D0009DE06B880433E418039BA342EDD82E00B6
:1051E0000137072FD9D15B46002B64D10122002360
:1051F000604912A800F08CFA029818F0A3FC0A90FB
:10520000002806D0089B32005B4912A8736000F0AA
:105210009FFA029818F0BAFC0A90002806D0089B62
:105220003200564912A8736000F092FA1223082245
:10523000002102980593FBF749FF3F2300259B4679
:1052400030004B46434A1B88934254D14B465E88FC
:105250004E44002D4DD029000422FBF7DFFE0AA8A2
:1052600043880433ED1804270AACAE4243D93A0010
:105270002900FBF7D3FE5946238820009A110A42E1
:105280001FD063880433ED18EFE7060001002020EB
:1052900018F0A0FC002806D12023029A089653603B
:1052A00002E71C1DE4E60324A0E618F031FC02002E
:1052B00064E71C1D3EE700220421404626F008FF5B
:1052C0009AE762880B40012BBBD1029B04350895FD
:1052D0005A602B4912A8029A00F03AFA514612A8D5
:1052E00000F0E8F9002800D094E600F033F904005B
:1052F0007EE61F4DB7E70600010005A818F0C0FCC8
:105300000028D0D1029B059A08965A60E1E7012354
:105310009C46E3445B462E006D88634509D101231A
:105320004046184A5B4226F081FD0421404626F0A3
:10533000A7FE221D2B00092140460692079526F064
:10534000D3FD4DE73000FBF769FE15E700DBFEFFFC
:10535000084B01081620000004DBFEFFFFDAFEFF09
:1053600005DBFEFF07DBFEFFFF60000006DBFEFF44
:105370000C4B010801DBFEFFFEDAFEFF08DBFEFF3F
:1053800003DBFEFF02DBFEFF0298FBF747FE08ABE4
:1053900002931B880A93EFE6802210B5920006491B
:1053A000012000F0EFF9052803D8044B8000C05815
:1053B00010BD84204042FBE7084B01080475001033
:1053C00010B5140086B001290FD1012B0DD103684F
:1053D0001268009302924368626801930392302B33
:1053E00007D0402B05D0202B03D08720404206B0A9
:1053F00010BD002AF9D004AA02A96846FFF7E8FD0B
:10540000002804D1049B2360059B6360EFE7052817
:1054100003D8034B8000C058E9E784204042E6E708
:105420000475001010B586B0012913D1012B11D1DC
:105430005368032B0ED91468002203681B6800927E
:105440000292104A01930392302B07D0402B05D0D3
:10545000202B03D08720404206B010BD04AA02A929
:105460006846FFF7B5FD002805D0052806D8064B8D
:105470008000C058F0E7059B2360EDE784204042A0
:10548000EAE7C046FFFFFF7F0475001070B5140007
:1054900084B0002901D1032B03D08720404204B0FF
:1054A00070BDD368012BF8D15369042BF5D16B463D
:1054B0001668556803A9DA1D02A800F063F80028F1
:1054C00005D1039A954208D28A204042E7E7052891
:1054D00010D80A4B8000C058E1E702993000FBF772
:1054E0009DFD6B46A268DB79002013702369039A47
:1054F0001A60D4E784204042D1E7C046047500100A
:1055000030B5104C83B02368002B17D16B462000B8
:10551000D91D18F041FC002810D10B4B00251A684A
:10552000002A0CD1206841320849FBF725FF0028EA
:1055300004D16B46DA79064B1A7000E00525280085
:1055400003B030BD104D0108584D0108144D01083D
:105550000C4D0108044B1A68002A03D000220020D9
:105560001A6070470520FCE7104D0108044B1B68CA
:10557000002B02D00360002070470520FCE7C046E6
:10558000104D0108074B10B51B68002B07D0064CC7
:10559000046000200B60054B1B78137010BD0520C4
:1055A000FCE7C046584D0108144D01080C4D010898
:1055B00070B5194D82B02B680400002B06D0002C6A
:1055C00027D00020154A0CC402B070BD0193144BC3
:1055D0001E68002E1BD0134901A8FBF701FF00280D
:1055E00015D13200104901A8FBF728FF00280ED181
:1055F0000A4E2B00711C202201A8FBF74FFF002848
:1056000005D1012333702B6801332B60D7E70320CA
:10561000DAE70520D8E7C046804D01085C4D010857
:10562000584D010809000002144D0108F0B50400AE
:105630001E00070098230D00E150A0370433C2502C
:1056400083B048220021ED0F3800FBF73FFDBD631A
:105650003E6201A8FFF78AFF0E2500281BD1DC233C
:105660000222E0500433E050183BE2542300019A38
:10567000D03358601A60089B200006CB26F0C0FB90
:105680002100380026F04AFE0025002806D1052119
:10569000200026F0F5FC280003B0F0BD032807D059
:1056A00019384542454101236D429D430335EEE7DC
:1056B0000425ECE770B5040082B00D00002205213E
:1056C00026F006FD20002100A03026F09FFE0028D5
:1056D0000AD0032814D019384342584101234042CC
:1056E0009843033002B070BD6E462000310026F0B2
:1056F00097FD012808D0002804D10CCE0CC5F1E795
:105700000420EFE70220EDE70120EBE77047C046F9
:10571000D0B516001F000400CB170A0026F086FB48
:1057200032003B00200026F081FBD0BD70B50500A3
:105730001668546882B0CB170A0026F077FB230066
:1057400032000221280026F0CFFB02B070BDC04617
:1057500070B505001668546882B0CB170A0026F0B1
:1057600065FB230032000321280026F0BDFB02B0B8
:1057700070BDC046024B1B68036000207047C046E6
:105780000076010810B5FBF775FD431E984110BD6A
:10579000F0B5C64600B58CB000F00AF9002800D07C
:1057A000E9E01027754C08AD06AE802101200906FE
:1057B0004042FCF77BFA07421ED1830655D44306CC
:1057C00000D583E003064DD521008020FCF770FA58
:1057D0000028EAD123689A1C44DB002B00DBA6E0FA
:1057E00000216068FCF76AFA802101200906404226
:1057F000FCF75CFA0742E0D021001020FCF758FAD1
:105800000028D2D123689A1C2CDB002BE8DB29D19D
:1058100023696068082B00D0A1E0A369042B00D0A5
:105820009DE063692A00984600210823FCF742FAAC
:10583000082800D08FE00423320002216068FCF7C2
:1058400039FA042800D086E0069B01934346009372
:10585000A068089A099B00F037F901006068FCF71E
:105860002DFAA2E7FCF72CFA9FE721002020FCF795
:105870001FFA002899D123689A1CF3DB002BAFDBB9
:10588000F0D123696068082B69D16369042B66D164
:10589000236A2A00984600210823FCF70BFA0828FF
:1058A00059D1042305AA01216068FCF703FA0428F2
:1058B00051D143460193059B02960093A068089A34
:1058C000099B00F07BF901006068C8E721004020D7
:1058D000FCF7EEF9002800D067E723689A1CC1DBCB
:1058E000002B00DA7CE7BDD123696068082B39D131
:1058F000236A0C2B36D1043B32000021FCF7DAF985
:10590000082833D1069A079B0095A06800F0C2F9D9
:105910008046002804D060684146FCF7CFF944E790
:105920000C232A0000216068FCF7C6F9F3E7002B7E
:1059300098D123696068082B11D12A000021FCF757
:10594000B9F9082807D1089A099BA06800F0D8F98E
:105950000100606883E78121606849427FE7812117
:1059600049427CE781235B429846D5E781235B422D
:1059700060689846D0E7FCF7A3F912E7844D010868
:1059800010B50B000349020048680121FCF792F9A9
:1059900010BDC046844D010810B50B00034902003C
:1059A00048680021FCF788F910BDC046844D010805
:1059B000F0B53F4B87B09E6AB0470369012B68D1B1
:1059C000B0473C4C83682381B047037D684623750C
:1059D00004F0A8FC00285CD1009B019863606B4632
:1059E000197A2389594389B26181FBF755F9A0815E
:1059F00004F0B0FC208204F0B5FC01306082B047B6
:105A00000369012B45D1B0472B4D83682B81B047EB
:105A1000037D03A82B7504F0ADFC002839D1039B4E
:105A200004986B606B46197D2B89594389B2698153
:105A3000FBF732F9A88104F0B5FC2830288204F085
:105A4000B9FC1E4F1E4E033068823A002100300020
:105A500000F068FA002801D007B0F0BD300000F077
:105A60009BFA002818D1174C3A002900200000F0BA
:105A700059FA0028F0D1200000F08EFA0028EBD06F
:105A8000200000F0A7FA0028E6D1200000F084FAF8
:105A9000E2E781204042DFE7300000F09BFA002877
:105AA000DAD1300000F078FA0028D5D1DBE7C04623
:105AB0009CF70210009C0008189C00081C75001040
:105AC000B4550108CC550108F0B54546DE465746A9
:105AD0004E461100E0B589B00500129C19435AD01A
:105AE00007211398884353D107932E4B069299466A
:105AF000042205A918000595FBF790FA4B460822E9
:105B0000181D06A9FBF78AFA80235B009D423CD052
:105B1000254B9A46254D49462A00504600F05EFA2C
:105B2000002828D1AB68DB0738D4C026139BB60207
:105B30001E431F4B0027984680231B019B4604E011
:105B40001C4B7F191E40641B18D025005C4501D9F1
:105B500080252D0129004046FFF712FF434601979B
:105B600002930095230032004946504600F05EFA49
:105B70000028E5D002E003008C33D6D009B03CBC4D
:105B800090469946A246AB46F0BD0B4B9A46C1E7FC
:105B900086204042F2E787204042EFE785204042DE
:105BA000ECE7C046E4550108B4550108F05501087A
:105BB000B44D0108FFFFFCFFCC550108F0B54E467F
:105BC000DE46574645461100E0B587B00400109EFA
:105BD000194352D005932A4B03909846049203A987
:105BE00004221800FBF71AFA43460822181D04A9DC
:105BF000FBF714FA80235B009C423BD0214B9A4672
:105C0000214C41462200504600F0E8F9071E27D1FA
:105C10002468B44231D3119BA41B9C4228D8129B08
:105C20001C601A4B994680231B019B4606E0290005
:105C30004846FFF7B1FE7619641B11D025005C457C
:105C400001D980252D014B462A000093414633009F
:105C5000504600F075FB071EE9D00023129A13602E
:105C6000380007B03CBC90469946A246AB46F0BD12
:105C70001C00D4E7064B9A46C2E787277F42EFE72E
:105C8000E4550108B4550108F0550108B44D010868
:105C9000CC550108110070B584B00600089D194369
:105CA00022D0134C0190029201A9042220000393F8
:105CB000FBF7B4F9201D082202A9FBF7AFF98023F6
:105CC0005B009E420ED00B480B4E2100320000F0CC
:105CD00085F9002804D133682B606B60B368AB6032
:105CE00004B070BD0548EFE787204042F8E7C046A2
:105CF000E4550108B4550108F0550108CC550108D8
:105D0000110070B5194384B00500002928D0164C45
:105D10000190029201A9042220000393FBF77EF96F
:105D2000201D082202A9FBF779F980235B009D4220
:105D300011D00E4E0E4D21002A00300000F04EF919
:105D4000002806D1AB68DB0707D42100300000F043
:105D50006DFA04B070BD074EECE785204042F8E7CD
:105D600087204042F5E7C046E4550108B4550108D4
:105D7000F0550108CC550108036810B59B68002058
:105D80009847431E984191234042984310BDC04616
:105D900010B50C00110042895443426894460268D1
:105DA0006344E31818005469029AA047431E9841BF
:105DB00091234042984310BD10B50C001100428958
:105DC00054434268944602686344E3181800946997
:105DD000029AA047431E984191234042984310BD28
:105DE0000020704770B5040040890E00002813D0D1
:105DF000002504E023896089ED18A8420CD9636866
:105E000070439C46236860444019DB69984700282A
:105E1000F0D09220404200E0002070BDF0B557461F
:105E20004E464546DE46E0B503688DB004AA05003F
:105E30000E005F8900F040FD002806D00DB03CBC8C
:105E400090469946A246AB46F0BD09A801F00EF96E
:105E5000002860D1049B20229846059B002199468A
:105E6000079B04A89A46FBF731F904AA31002800E1
:105E700000F09AFF0028E1D12B685B8A002B2ED01E
:105E80000022002493460BE004AA2100280000F021
:105E90008BFF0028D2D12B685B8A0134A34220D922
:105EA000A642FAD004AA2100280000F005FD00282F
:105EB000C4D1049B03934345E6D109A801F0D6F869
:105EC0000028E1D1059B4B45DED99F4221D852469F
:105ED0009B1A0593079B9C460393E344D4E7002356
